S01D000062745F736F635F6E6F76615F6672656572746F735F332E733337EF
S31508012000D8070020255F010893D1030893D1030857
S315080120107B01040893D1030893D1030893D10308DC
S3150801202093D1030893D1030893D1030881B3040814
S3150801203093D10308441F050811B304084DE50408A4
S3150801204093D1030893D1030893D1030893D10308C5
S3150801205093D1030893D1030893D1030893D10308B5
S3150801206093D1030893D1030893D1030893D10308A5
S3150801207093D1030893D1030893D1030893D1030895
S3150801208093D1030893D1030893D1030893D1030885
S315080120902D560108DFCD030893D1030893D1030810
S315080120A093D1030893D1030893D1030893D1030865
S315080120B0AD64010893D1030893D1030893D10308AA
S315080120C093D1030893D1030893D10308F184010836
S315080120D093D1030893D1030893D1030865800108B6
S315080120E04580010893D1030893D1030893D10308C6
S315080120F093D10308795703081562030885860408EE
S3150801210081860408BD5903089B8604088986040844
S31508012110E56103088D86040855620308C162030850
S3150801212093D1030893D1030893D1030893D10308E4
S315080121302FFA030893D1030893D1030893D103080F
S3150801214093D1030893D1030893D1030893D10308C4
S3150801215093D1030893D1030893D1030893D10308B4
S3150801216093D1030893D1030893D1030893D10308A4
S3150801217093D1030893D1030893D1030893D1030894
S3150801218093D10308DDC1010893D1030819E50408B1
S31508012190293D030893D103086F8604087586040848
S315080121A093D1030893D1030893D1030893D1030864
S309080121B093D10308AD
S315080121B4F0B5114A114C124E00F00105E3695F07A7
S315080121C413D40DB9334213D103EA00078F4207D159
S315080121D40B4A1A40002A0CBF00206FF00100F0BD1B
S315080121E4013AEBD16FF00200F9E74FF0FF30F6E759
S315080121F46FF00100F3E700BF8096980000000350D2
S31508012204020001000B4B70B5D96911F480310DD167
S3150801221401244FF48072084E084DF46020462C645C
S315080122241A61FFF7C5FF3464EC6070BD6FF00100F5
S31508012234FBE700BF000003500010035000200350C1
S315080122444FF4803238B50E4B0E4C9A66E56941F661
S31508012254713315400122E3630B4B0021DA60022333
S31508012264606121202361FFF7A3FF10B92120FFF73D
S315080122749FFF0122054BDA600DB10023E36338BDE4
S315080122840090005000000350001003500020035032
S3150801229470B5134C6061E3695B071ED40E4656F8A4
S315080122A4043B8D18A361AE420BD1042300212120DE
S315080122B42361FFF77DFF58B9BDE870402120FFF778
S315080122C477BF08210846FFF773FF10B1042323617A
S315080122D470BD56F8043BA361E5E74FF0FF30F7E715
S315080122E4000003502DE9F84315464FF48032184B84
S315080122F489469A6603F51C33DF690646174041F693
S315080123047132DA63012203F58053DFF84C80DA600F
S3150801231455B9284601220F4BDA601FB10022A3F5ED
S315080123240053DA63BDE8F88306F5005404EA0804A1
S31508012334A41BAC4228BF2C46494622463046FFF721
S31508012344A7FF0028E6D12644A1442D1BE0E700BFD8
S31508012354009000500020035000E0FFFF0000000039
S31508012364000000000000000000000000000000005A
S31508012380013800D0FCE7704738B50022164B51ECEE
S31508012390100B24F0C9F910A3D3E9002304460D460E
S315080123A024F052FC70B90EA3D3E90023204629462E
S315080123B024F02CFC58B92046294624F0CDFF00EE1E
S315080123C0100A38BD47F6FF3300EE103AF9E74FF623
S315080123D0FF33F9E7AFF300800000000000FCEF408F
S315080123E00000000000FCEFC00000E0400000000013
S315080123F02DE9F04F93B0CDE90A32DDE91C530E936E
S3150801240053EC102BCDE90801104619468DED060B44
S315080124101E9E24F0F1FB80B1DDE906014FF0FF3283
S31508012420C54B24F011FC40B9DDE906014FF0FF3236
S315080124306FF4801324F0EAFB70B1DDE908019DED24
S31508012440060B0E9B1E96CDE91C53DDE90A3213B025
S31508012450BDE8F04F00F088B90022DDE90601002346
S3150801246024F0D4FB002800F03381DDE906A303F14B
S31508012470004BCBF30A5016F48063A0F2FF3008BF75
S3150801248006250F9324F0E6F89BA3D3E9002324F04D
S315080124904BF99BA3D3E9002323F090FFCBF3130455
S315080124A0894644F07F5180460022A44B504641F4A8
S315080124B0401123F081FF94A3D3E9002324F034F9D2
S315080124C002460B464046494623F078FF24F0C6FBF0
S315080124D0044624F0BFF88EA3D3E900238046894633
S315080124E024F022F90022964B23F068FF24F0B6FB6C
S315080124F089A3D3E9002307464946404624F014F93F
S3150801250080463846894624F0A5F885A3D3E90023F1
S3150801251024F00AF902460B464046494623F04CFF89
S3150801252002460B46CDE90C2324F0FEF8DDE90C231F
S31508012530804689461046194623F040FF0022CDE918
S315080125401001804B4046494624F018FA00227E4B7A
S3150801255023F034FF02460B464046494624F00EFA5C
S3150801256000227A4B23F02AFF02460B46404649468B
S3150801257024F004FADDE90C238046894600204FF051
S31508012580804123F019FF02460B464046494623F08F
S3150801259015FF02460B46DDE9100124F0EFF907F2B3
S315080125A0FF3700226A4B23F009FF00223B0524F07E
S315080125B0BBF852465B468046894624F045FB00280F
S315080125C040F08980CDE90C8904F16303C72B34BF38
S315080125D00427052731051BD553A3D3E90023504604
S315080125E0594624F027FB00287FD051A3D3E90023BD
S315080125F05046594624F00AFB002876D00027A54202
S31508012600C6BF2C1B04F1FF3500253C4646F48066FF
S315080126100E9B9F422CBF4FF00008A3EB070816F04C
S31508012620020903D0002F18BF4FF000083CB1DDE9BD
S315080126300C235046594624F0A1F982468B46DDE91A
S3150801264006010022002324F0E1FA10B10BF1004340
S315080126509B46DDE9080126F40063CDE90183DDE93E
S315080126600A324BEC10AB009500F07EF802465FB3D8
S31508012670DDE9091316F0200F00F10105089E0CBFCC
S3150801268065204520B047DDE90801052300220593A9
S315080126900A23002CCDE9023207F1FF374FEAD4733A
S315080126A0B8BF64422A46019304970A9B00942EF008
S315080126B005FF0246B9F1000F06D00B9BC41A0B9B06
S315080126C01A190E9BA34245D8104613B0BDE8F08FE0
S315080126D0DDE906ABCDE60022404649461A4B24F011
S315080126E04DF9013CCDE90C016EE7002D90D00F9B09
S315080126F0002B8DD0013D8BE7FB799F501344D33FC7
S31508012700B3C8608B288AC63F61436F63A787D23FE8
S3150801271071A379094F930A401655B5BBB16B0240AF
S31508012720EF39FAFE422EE63F2D431CEBE2361A3FFD
S315080127300000000080842E41FFFFEF7F0000F83F74
S315080127400000E03F00002C40000024400000184033
S315080127500000F03F2020DDE90913089DA847013450
S31508012760ADE700BF000000002DE9F04F5BEC10ABB0
S3150801277097B0CDE90501DDE92057CDE90723504694
S3150801278052465B465946229E24F036FA70B903230F
S31508012790CDE902760193B04B0093DDE90501DDE948
S315080127A007232EF0ABFD17B0BDE8F08F4FF0FF32CF
S315080127B06FF480135046594624F028FA28B10423A9
S315080127C0CDE902760193A54BE6E74FF0FF32504675
S315080127D05946A34B24F038FA68B1A24A06F0040315
S315080127E0002B08BF0322A04B1CBF13460422CDE9C8
S315080127F002760192D0E7504693A3D3E900235946BE
S3150801280024F022FA38B992A3D3E90023504659464F
S3150801281024F0FCF968B1DDE90723DDE905014BEC94
S3150801282010ABCDE92176209517B0BDE8F04FFFF73B
S31508012830DFBD002200235046594624F0E7F9002857
S3150801284000F09A805B4652460020002123F0B4FD31
S31508012850012382468B46099316F4806400F08E8024
S31508012860092D40F28E80002430210EABA5F1090214
S315080128700134202C03F8011BA5EB040901D094426D
S31508012880F6D15946504624F0E9F9784B054603EB4B
S31508012890C90393ED007B8DED0A7B23F0DBFE02462F
S315080128A00B465046594623F087FDDDE90A2323F0F6
S315080128B03BFF02460B46CDE90C2324F0F7F9804687
S315080128C023F0B8FE02460B46DDE90C0123F074FD40
S315080128D002460B46CDE90C230022654B24F0B4F9D8
S315080128E0002851D008F10108404623F0A3FE02460C
S315080128F00B46DDE90A0124F093F910B14FF00008FF
S315080129000135B9F1000F50D1284623F0A3FE02463E
S315080129100B465046594623F04FFD0022544B80463C
S31508012920894624F073F930B1002240464946504B96
S3150801293024F08AF910B1E80700D501350A210EAB52
S315080129401A19202C0AD095FBF1F001FB10553035E8
S3150801295002F8015B013405460028F2D106F00302AC
S31508012960012A57D1002F55D0099A12B916F00C0F22
S3150801297000D0013F302245E009906DE74FF0060986
S315080129807FE7A94600247CE70022DDE90C01384BE4
S3150801299024F03CF90028B4D1B8F1000F02D018F0A0
S315080129A0010FAED008F10108ABE70A210EAB2344AB
S315080129B0202C0ED0B8FBF1F001FB1082B8F1090FFB
S315080129C002F1300209F1FF3904F1010403F8012B80
S315080129D011D83021A1440EAA202CAFD0A14504F16B
S315080129E001030AD11C4609F158030DEB03092E23ED
S315080129F009F8203CA2E78046DAE7A1541C46EBE732
S31508012A001A550134A74205D9202CF9D1CDE9027608
S31508012A100194C1E6202CF9D0099A3AB12D2104F185
S31508012A2058026A4402F8201C0134EFE7710704D5FD
S31508012A3004F158022B216A44F4E73207E6D504F17A
S31508012A40580220216A44EDE70000000065CDCD411A
S31508012A500000000065CDCDC1893705088D37050809
S31508012A60FFFFEF7F80370508853705089837050882
S31508012A700000E03F000000002DE9F74F0446DDE9BC
S31508012A800C7B886816469A460D4623F0F5FD804666
S31508012A90B068894623F0F0FD02460B464046494692
S31508012AA023F042FE80468946BAF1000F1BD0DAF8B8
S31508012AB0080023F0E1FD02460B464046494623F04D
S31508012AC07BFC8046B86821F0004923F0D5FD024613
S31508012AD00B464046494623F051FF12A3D3E900238A
S31508012AE024F09EF850B13B46324629462046CDF899
S31508012AF030B003B0BDE8F04F0EF018BF064B2046C4
S31508012B000093656940F24513044A0549A84701201F
S31508012B1003B0BDE8F08F00BF463A050878390508C5
S31508012B20F03905087B14AE47E17A943F00000000AE
S31508012B302DE9F04FD0F80CB00446DBF80030924688
S31508012B40584600229B6987B00E469847054658B9EC
S31508012B50714B0093272365692046704A7049A84737
S31508012B60012007B0BDE8F08FDBF8003000223146BE
S31508012B705846DB699847074620B96A4B0093656949
S31508012B802A23E9E7287F3B7F834212D066690EF044
S31508012B9091FE0546387F0EF08DFE634BCDE9025056
S31508012BA00193624B204600935C4A2C236049B04747
S31508012BB0D6E7092B39D1FB6813F1800F0ED06FF0D8
S31508012BC07F02CDE902325B4B01935B4B00932E23C7
S31508012BD065692046514A5949A847C1E7A86823F0BB
S31508012BE04BFD0022564B23F09FFD41EC100B50463E
S31508012BF0EB6840F80C3B29F09BF80022514B51EC4D
S31508012C00100B23F091FD41EC100B29F07FF951ECE3
S31508012C10100B24F023F81F22CAF80800DAF80C1062
S31508012C2004202EF0B4FDCAF804002B7F072B61D1CE
S31508012C30EB684BB10022CDE90232434B0193434B7A
S31508012C40009365694623C4E7FE6846B1CDE9026388
S31508012C503D4B0193384B009365694723B9E795EDD9
S31508012C60020A04A80FF0AEF8049B0C33CAF80C301C
S31508012C7003B9D8B9A86823F0FFFC0022344B23F026
S31508012C8053FD0022334B23F04FFD21A3D3E9002343
S31508012C908046894623F0C4FF08B11F2E13D1CAF80E
S31508012CA00C604046494623F0D9FF064697ED020ACD
S31508012CB0CAF8086005A80FF085F860B9264B009395
S31508012CC06569652348E742464B464046494601360B
S31508012CD023F074FBD9E7059B13F10F0F0AD06FF0A8
S31508012CE00E02CDE902321D4B01931D4B0093656916
S31508012CF067236EE7DBF80030294658465B6A984732
S31508012D00DBF80030584639465B6A9847002028E7C1
S31508012D1000000000C0FFCF40C4480508224C050842
S31508012D20F0390508D5480508BE4C0508CB4C0508F9
S31508012D30A44C0508D74C0508FA4C0508683A050855
S31508012D400000A0410000E041443A0508144D050879
S31508012D500000B040000008402D4D05086B4D0508E0
S31508012D60824D050800000000002370B5424C054657
S31508012D708AB0E36318B10088236015F0FDFF16F0E9
S31508012D806BF93E4834F0A5FE3D4E3E4B3046336066
S31508012D903D4B736032F07CFD002130461CF00AFC85
S31508012DA033A3D3E90023A062C4E9062332F07BFDED
S31508012DB0D4E9062319431043C4E90601CDE9000104
S31508012DC04FF0FF334FF0FF32A06A34F029FF022299
S31508012DD04FF0FF31A06A34F028FF012015F050FDAD
S31508012DE04FF4007300222949A06A35F020F8B0F59E
S31508012DF0007F39D100239422079309933C23CDE917
S31508012E0003320593962306935023A06A03A90893D0
S31508012E101CF0EAFC35B3287C16F030F90546F0B902
S31508012E20A06A35F0F9F816F0B7F915F00BFD20B1DF
S31508012E304FF48070002113F0C9FC15F013FD20B181
S31508012E404FF40060002113F0C1FC32F0F4FD0120BB
S31508012E5034F013FE0E4A0F49A06A32F017FD2846D0
S31508012E600AB070BDFF20D7E70725F8E7AFF3008062
S31508012E700DD5015520000000384C0020690345ECAA
S31508012E80409D0020B9860208509D0020409B0020E5
S31508012E90355804087558040851EC100BC1F30A5348
S31508012EA02DE9F041A3F2FF350C460646132D32DC17
S31508012EB0002D20DB384B0F4643FA05F801EA0803D3
S31508012EC003432DD032A3D3E9002323F077FA002256
S31508012ED0002323F0B9FE40B1002C03DA4FF4801326
S31508012EE02B411F4427EA080400262346324643ECB1
S31508012EF0102BBDE8F08126A3D3E9002323F05EFA5F
S31508012F000022002323F0A0FE0028EED0002C2ADBA5
S31508012F1000263446E9E7332D06DDB5F5806F1BD06B
S31508012F2041EC100BBDE8F081A3F213434FF0FF37D4
S31508012F30DF400742F4D016A3D3E9002323F03EFA73
S31508012F400022002323F080FE0028CED0002C334631
S31508012F5010DB23EA0706C8E702460B4623F02EFADA
S31508012F6041EC100BDEE724F0004426430DD14FF067
S31508012F700044BAE7142D06D0C5F134050122AA404A
S31508012F801344B342E5D20134E3E70026034CACE728
S31508012F909C7500883CE4377EFFFF0F000000F0BFF8
S31508012FA00348044B834202D0034B03B118477047C9
S31508012FB0E0AD0020E0AD002000000000064B074907
S31508012FC0C91A891048BF0131491003D0044B0BB106
S31508012FD001481847704700BFE0AD0020E0AD00206A
S31508012FE00000000010B5064C237843B9FFF7D8FF57
S31508012FF0044B13B10448AFF300800123237010BDBD
S31508013000FAA5002000000000589D050808B5054BE3
S315080130101BB105490548AFF30080BDE80840FFF735
S31508013020CDBF00BF00000000B84E0020589D05081E
S31508013030A3F5803A704700BF174B002B08BF134B07
S315080130409D46FFF7F5FF00218B460F461348144AA4
S31508013050121A37F0E8FF0E4B002B00D098470D4B9C
S31508013060002B00D098470020002104000D000D48D0
S31508013070002802D00C48AFF3008028F035FE200066
S31508013080290029F009FE28F09FFA00BF0000080070
S315080130900000000000000000D8070020E00700201B
S315080130A0E0A8002000000000000000002DE9FF470D
S315080130B01446DDE90E7E1A46DDE90C63D1ED025AA6
S315080130C0616892ED025A0C689FED1E7A0021DFEDC8
S315080130D01E6ADDF840C004340DF10C080DF104092F
S315080130E00DF1080A614506DB0C97317804B0BDE895
S315080130F0F0470EF04DBCB4EC016A25EE866AC6EEC1
S31508013100057A67EE807AF4EEC77AF1EE10FACDED1C
S31508013110017A4CBF45464D468DED037AD5ED007AC9
S31508013120F4EE667AF1EE10FACDED026AC8BF55469D
S31508013130D5ED007AF3EE677A17EE905A2EF811500C
S315080131400131CFE700E07FC700E07F472DE9F04F67
S31508013150D1E90348C668AFB033680022DB69074680
S3150801316030460D4698473368022229469B698346AD
S31508013170304698473368002229469B69824630467D
S315080131809847336881460122294630469B69984704
S315080131900C90B9F1000F03D101202FB0BDE8F08FD3
S315080131A0BBF1000FF8D00C9B002BF5D0D9F81430E1
S315080131B05A6822611A6962619A68DB680D920E93F0
S315080131C023620C9BE2615B695A689D680B92DB6816
S315080131D06262DBF814200F939168D268A364D9F868
S315080131E00C30E1625B42E366DBF80C30226323674D
S315080131F0D8F80830656410932365D8F8043011931C
S315080132006365D8F8143063661293D8F810301393AF
S31508013210A36698F800305A1E14935342534184F812
S315080132205830139BDDE90E1200931498119B29F06F
S31508013230C9F8129B2A460D99159000931498109B6C
S3150801324029F0C0F8129B013D5D43109B01350138F9
S3150801325003FB00550D9B139AED1A0F9B1199013B20
S315080132605343159A0133013A01FB02330E9A25EAB3
S31508013270E5759B1A23EAE3735B10236699F81C30FC
S315080132806D10092BE56540F0C98004F11005284643
S315080132902AF00EFA04F134030E9304F13803BA6BDB
S315080132A008F10C080D93002864D0002323700B9BAA
S315080132B0384659000F9190470F99BAF1000F56D029
S315080132C000239FED6A7AE0640B9A9A423DDCBB6B58
S315080132D038469847E0630F9028462AF008FA0B9B70
S315080132E0054604930F9B9FED620A03930D9B49467E
S315080132F002930E9B3846CDE900830C9A5B46FFF78D
S31508013300D5FE00287FF449AF002D40F39A8029465F
S3150801331038463B6C04F10C02984700287FF43DAF10
S315080133203368494630465B6A9847336830465B6A74
S315080133300C9998473368594630465B6A9847BAF1FB
S31508013340000F40F08C80002027E7DAF8102002EB06
S315080133508302D2ED007AF8EEE77A67EE877AF3EE22
S31508013360677A17EE902A20F813200133ACE7C4F8E0
S315080133704CA0ACE70B9B38469D0029469047294649
S31508013380BB6BA067384698470B9BE067CDE90703F7
S31508013390A36F494606930D9B384605930E9B0C9AD7
S315080133A0049317AB039316ABCDE90183CDF800B0AF
S315080133B053460EF071FB00287FF4EFAE012323700C
S315080133C0E36E1CAA2493236F18A92593236D24A8B9
S315080133D02793636D2693636E2B93A36E2A93E36DEE
S315080133E02993236E2893636B2C93A36B2D932369DF
S315080133F01893E3691993236A1A9363691B93636C98
S315080134001D93A36C1E93E36A2193236B2293636A2C
S31508013410239320AB19F084FF054675E7012B7FF44A
S31508013420BBAE0223237098F80C30012B03D100237D
S315080134306360104B04E0032B07D1002363600E4B36
S31508013440A3604FF0FF33E3606AE7022B04D10B4B0D
S3150801345063604FF07E53F3E76FF40003E8E73368E0
S31508013460514630465B6A98476DE700BF0000003851
S3150801347000000047FFFF7F7F0000C040000080BFBB
S315080134802DE9F04F2DED068B16461D46B1F9603034
S31508013490B7B00893B1F95C3091ED019A0993B1F986
S315080134A05430D1ED029A0A93B1F950301AA80B9308
S315080134B0B1F96830479C0C93B1F9643011460D9304
S315080134C02EF0F3FA3368294621A80F932EF0EDFA68
S315080134D02B68469928A810932EF0E7FA469B0BB15C
S315080134E01B68469321462FA82EF0DFFA23681B9AFC
S315080134F00E93309B00259A42A8BF1A46339B119218
S31508013500229A9FED60AA9A42A8BF1A461C9B079267
S3150801351013931D9B1493239B1593249B1693259B09
S315080135200693069A1E9B93FBF2F3079A92FBF3F313
S315080135301793319B1893329B1993119BAB4240F316
S315080135409A80099B5B420593002303930FE04FF092
S315080135500009089B5B420493199B4B4500F389803C
S31508013560039B0B9A01330393059B13440593189BFD
S31508013570039A9342EBDC0135DFE7179B4FF0000A0C
S3150801358094FBF3F3DFED3F8A069A059E53431293A4
S31508013590159B53452CDC469B002B67D003EB840314
S315080135A093ED008A38EE288AB4EE489AF1EE10FABD
S315080135B039FE088AF4EE489AF1EE10FA4B46009461
S315080135C02946039A2FA848BFB0EE698A28F0EEFE6D
S315080135D00E9B013403EB800080ED008A079BA34212
S315080135E0CBDC049B0A9A09F1010913440493B3E756
S315080135F04FF0000B049F169B5B4504DC0D9B0AF1FB
S31508013600010A1E44C4E756EA07032AD4149BBB429F
S3150801361027DD139BB34224DD4FF000081EE0129B01
S3150801362032464344294600931AA83B4628F0BEFE73
S315080136300F9B524603EB800090ED008A5B46CDF85E
S315080136400080214621A828F0B1FE109B08F1010847
S3150801365003EB8000D0ED007AE8EE278A069B434506
S31508013660DDDC0C9B0BF1010B1F44C4E7B0EE4A8A63
S3150801367098E70024B2E7002037B0BDEC068BBDE819
S31508013680F08F00BF00000000002313B50446CDE902
S315080136900033044A044B05492EF0DDF9204602B0F1
S315080136A010BD00BF4D310108DBC40308A7C30308D9
S315080136B02DE9F04F2DED028B012AA1B01C46DDE95B
S315080136C02C762E9D50D0032A53D0F7EE007ADFEDE3
S315080136D0488A022A9FED478A47FEA88AFFEE007AA2
S315080136E007FE888A214604A82EF0DFF923683946A1
S315080136F00BA800932EF0D9F93B68314612A801931D
S315080137002EF0D3F9294619A8D6F800802EF0CDF95E
S31508013710199C2B68013C21460B9D19A8029328F098
S3150801372027FF20AA20AB03EB850302EB840153F89C
S31508013730584C51F8183C02EB85059C42A8BF1C461B
S31508013740002355F8546C1F461D46DFED2B6A03907E
S31508013750039ABA4246DD0021029A02EB850E009AC7
S3150801376002EB83090A462BE0DFED218A9FED228AC7
S31508013770B8E7F1EE088AF9E7BAEC016ABBEC017A17
S31508013780E6EE077A0CF1010C6645F5DCB8F1000F97
S3150801379021D008EB820C9CED007A77EE877AF4EE5D
S315080137A0487AF1EE10FA48BFF0EE487AF4EE687AF4
S315080137B0F1EE10FA78FEA77AEEEC017A013231447D
S315080137C0A2420BDA0198CA464FF0000CDFED0A7ADD
S315080137D000EB810BD8E7B0EE667ADEE701372544C0
S315080137E03344B5E7002021B0BDEC028BBDE8F08F6C
S315080137F0FFFF7F7FFFFF7FFF00000000002313B557
S315080138000446CDE90033044A044B05492EF023F951
S31508013810204602B010BD00BFB7C50308B1C90308E9
S315080138206BC503082DE9F04F99B05C6815924A6893
S31508013830D3F810809442A8BF14460A690026424567
S315080138400492A8BF424610928A689FED626A0B925B
S31508013850CA680F9406929A68DB680A920593C36848
S3150801386009960D93036901960E931346059A5343D8
S3150801387008FB03F3149308FB02F31193049B9B00C3
S315080138801293019B0F9A934280F2A1800025099B0E
S315080138900295009388E0B0F90240069AA7EB040E58
S315080138A0A2EB0E0982698DED176A9145A8BF91466B
S315080138B0B0F904100B9A6B1AA2EB030A4269491B69
S315080138C09245A8BF924621EAE171069A33440B4410
S315080138D05343E41B24EAE474CDF84C900793A644B9
S315080138E0514527DA079BA1460EEB0302049B03FB0E
S315080138F002C2159B03EB820211E092ED007AF4EE07
S31508013900C77AF1EE10FA17AB4CBF93469B46129B4A
S31508013910DBF800B009F10109CDF85CB01A44139B34
S31508013920DDED177A9945E8DBDDE906321A440131FE
S315080139300792D5E7D0ED096ADDED177AF4EE667AD6
S31508013940F1EE10FA90ED0A7A48BFF0EE667AB4EE17
S31508013950E77AF1EE10FA58BFB0EE677A0C9B0CF1D4
S31508013960010CA3EC017A0C93109B9C4593DB039BFA
S3150801397001330393089B434408930E9B1F44039BFF
S31508013980059A934207DA229B089A4FF0000C03EB3B
S3150801399082030C93E8E7029B119A01330293009B79
S315080139A0134400930D9B1D44029B0A9A934204DA21
S315080139B00027009B03970893E1E7019B149A0133BB
S315080139C00193099B134409930B9B1E4459E719B0AC
S315080139D0BDE8F08FFFFF7FFF2DE9F04FD1E90345E1
S315080139E0C66899B0336800229B69089030468846B4
S315080139F098473368074641460022DB6930469847AF
S31508013A0080462B784FF001095A1E5342534184F8D8
S31508013A104030AB683946A3636B680AA8E3632B6930
S31508013A202363EB6863632DF0F3FE414611A82DF07D
S31508013A30EFFE0B9A129B39469A42D4BFA260A36045
S31508013A400AA82DF0E5FE414611A82DF0E1FE0E9AD1
S31508013A50159B9A42D4BFE260E3607B69D3F808A05C
S31508013A60D3F80CB0D8F8143059469A68DB68226244
S31508013A706362AB68C4F814A003936B68C4F818B002
S31508013A8004932B690593EB6806932B78069A07939B
S31508013A900798049BCDF8009028F094FC5146039BA7
S31508013AA0059A0990CDF80090079828F08BFC059B9C
S31508013AB0039A013802FB0032099B06990498013BD7
S31508013AC000FB0313A3EB0B0323EAE37343FA09F39E
S31508013AD0A2EB0A02A3643B7F22EAE27242FA09F2E6
S31508013AE04B45297D626426D10223494584F84C3029
S31508013AF003D100232360174B04E0032911D10023C6
S31508013B002360154B63603368394630465B6A9847CC
S31508013B103368304641465B6A9847002019B0BDE8CC
S31508013B20F08F022904D10D4B23604FF07E53E9E74C
S31508013B306FF40003DEE704F12C030093424604F117
S31508013B40280308980DF024FF3B7F092BDBD0484654
S31508013B50E4E700BFFFFF7F7F0000C040000080BF91
S31508013B60002313B50446CDE90033044A044B05493D
S31508013B702DF071FF204602B010BD00BF1FCB030810
S31508013B802BCA030825CA0308014B1868704700BFEA
S31508013B90A8500020014B1868704700BFA4500020A8
S31508013BA030B52D4D89B0D5E8AF4F14F0010411D1C8
S31508013BB0284634F08DFD68B12848294B294A2A49F7
S31508013BC00360C0F8C840C0F8044134F07CFD2846BB
S31508013BD034F08AFD01A80FF0F7F801AA7221234BE8
S31508013BE01E4829F01CF801A8FFF74EFD01AA03217A
S31508013BF01F4B1A4829F013F801A8FFF7B1FF01AACC
S31508013C0011211C4B154829F00AF801A80FF044FDAB
S31508013C1001AA1621184B114829F001F801A8FFF746
S31508013C20EDFD01AA0921154B0C4828F0F8FF01A85A
S31508013C300EF098FE01AA0E21114B084828F0EFFF55
S31508013C4001A80EF0B7FD06210E4B044801AA28F07B
S31508013C50E6FF024809B030BDD04E0020D44E002000
S31508013C6070F10408ACAA00208DCB03082D160408B0
S31508013C7073160408FF160408951702080D1802089A
S31508013C802916040825160408F0B52C4C85B0D4E885
S31508013C90AF3FDB070BD4204634F01AFD38B1284A6A
S31508013CA02849294834F00FFD204634F01DFD274BDD
S31508013CB0254A1A60264B1A68D6189B58F31A1A8889
S31508013CC0042A04D99B8813B1F358032B00D0FEE7C5
S31508013CD0FFF766FF07461F4DD5E8AF4F14F00104FD
S31508013CE016D1284634F0F4FC90B14FF480433A4695
S31508013CF031460093CDE90144174B18482DF0B8FD1C
S31508013D000F4A1749154834F0DEFC284634F0ECFC16
S31508013D101248144D28600EF0F7F9044600B1FEE783
S31508013D20014628680EF0C6F80F4B21461860286828
S31508013D300EF0D6F80D4B186005B0F0BD9C5000206A
S31508013D40ACAA00208BCB0308B0AA0020AC500020F7
S31508013D5060FA0408DC4F0020E0070020E04F00204D
S31508013D6015190408A8500020A4500020A0500020CE
S31508013D7030B53D4BA7B00022186811A93AF01AFED2
S31508013D8000286FD0159822F077FCCDE90A0114981E
S31508013D9022F072FCCDE90801139822F06DFC9DF81A
S31508013DA05930CDE906011298049322F065FCCDE954
S31508013DB00201119822F060FC9DF85840CDE90001F6
S31508013DC023463C21294A17A80DF060FC032001F07F
S31508013DD0E5FD68B1264C274920682BF06BFE29F0D2
S31508013DE009F829F008F82449206817AA2BF062FE79
S31508013DF0F2EE046A9DED117ADDED127A27EE267A46
S31508013E0067EEA67ABCEEC77AFCEEE77A17EE103AA9
S31508013E10ADF8303017EE903A13AAADF832300DAB43
S31508013E2007CA83E80700BDF858301448ADF8403092
S31508013E3012221B2100780CAB16F082FA044688B1CF
S31508013E40022001F0ABFD68B1094D0D4928682BF038
S31508013E5031FE28F0CFFF28F0CEFF2246094928680F
S31508013E602BF028FE27B030BDC450002084F1040889
S31508013E70C47B0020B9F10408BEF10408FBA50020A3
S31508013E80C2F10408C7F1040870B50368994A23F416
S31508013E907F4323F00703934204469AB000F0068253
S31508013EA009D8954A934265D002F5A022934200F0BB
S31508013EB0B4811AB070BD914A9342FAD1B0F805306F
S31508013EC01B2BF6D10022002300210BADCDE90823D7
S31508013ED0CDE90623CDE90423CDE90023029128463D
S31508013EE03C21874A0DF0D2FB032001F057FD68B14A
S31508013EF0844E854930682BF0DDFD28F07BFF28F0DC
S31508013F007AFF2A46814930682BF0D4FD284637F0D6
S31508013F10E8F80DF12A02CDE90052034600221B21D9
S31508013F20207916F0CBF905460028C2D0754C784998
S31508013F3020682BF0BFFD774920682BF0BBFD28F0E0
S31508013F4059FF28F058FF744B744A00937449A92302
S31508013F5020682BF0AFFD73492B46734A20682BF076
S31508013F60A9FD284601F060FD704920682BF0A2FDE5
S31508013F7000BEFDE7032001F011FD90B1614D6249D4
S31508013F8028682BF097FD28F035FF28F034FF638960
S31508013F906749019323890093E388A28828682BF04F
S31508013FA089FD0DF12A010BA818F070FE054618B314
S31508013FB0544C574920682BF07DFD564920682BF053
S31508013FC079FD28F017FF28F016FF534B534A009343
S31508013FD053496D2320682BF06DFD52492B46524AF1
S31508013FE020682BF067FD284601F01EFD4F49206821
S31508013FF02BF060FD00BEFDE7032001F0CFFC20B3E6
S31508014000404C414920682BF055FD28F0F3FE28F075
S31508014010F2FE9DF82C309DF82A0004939DF82D3068
S31508014020444903939DF82E30434A02939DF82F3055
S31508014030002818BF0A4601939DF830303F4900937E
S3150801404020689DF831302BF035FD3D4E304618F08D
S31508014050A9FD054618B32B4C2D4920682BF02AFDDE
S315080140602C4920682BF026FD28F0C4FE28F0C3FE53
S31508014070294B2A4A00932A49752320682BF01AFDF1
S3150801408028492B46284A20682BF014FD284601F0BA
S31508014090CBFC264920682BF00DFD00BEFDE7022169
S315080140A0307818F0B9FD044600284BD0154D18494B
S315080140B028682BF0FFFC174928682BF0FBFC28F031
S315080140C099FE28F098FE144B144A00931449792353
S315080140D028682BF0EFFC13492346134A28682BF06E
S315080140E0E9FC204601F0A0FC104928682BF0E2FC07
S315080140F000BEFDE7A0000601A0000100A0000A011C
S3150801410010F30408C47B0020B9F10408BEF10408C1
S31508014110494705083BF204085BF3040840F2040822
S315080141206BF204087AF2040877F204088FF204089D
S3150801413014F20408F8F1040806F20408A0F20408C7
S31508014140B2AD0020A022009003461146307818F03F
S3150801415041FD054618B3A84CA84920682BF0AAFCCE
S31508014160A74920682BF0A6FC28F044FE28F043FE58
S31508014170A44BA54A0093A5497C2320682BF09AFCF9
S31508014180A3492B46A34A20682BF094FC284601F044
S315080141904BFCA14920682BF08DFC00BEFDE70221EE
S315080141A0307818F04DFD054618B3934C93492068AD
S315080141B02BF080FC924920682BF07CFC28F01AFE33
S315080141C028F019FE8F4B904A009390498023206866
S315080141D02BF070FC8E492B468E4A20682BF06AFC20
S315080141E0284601F021FC8C4920682BF063FC00BEAF
S315080141F0FDE7032001F0D2FB00283FF45AAE7E4CBE
S31508014200864920682BF056FC28F0F4FD28F0F3FDCA
S31508014210834920682BF04EFC4BE6032001F0BEFBD8
S3150801422060B1754D7D4928682BF044FC28F0E2FD04
S3150801423028F0E1FD7B4928682BF03CFC227B7A4B70
S3150801424014211A700123794A00937948002301F051
S315080142500BFC044618B3684D684928682BF02AFCFC
S31508014260674928682BF026FC28F0C4FD28F0C3FD11
S31508014270644B654A00936549872328682BF01AFC25
S3150801428063492346634A28682BF014FC204601F04B
S31508014290CBFB614928682BF00DFC00BEFDE7014602
S315080142A063481AB0BDE87040FFF762BD032001F00C
S315080142B075FB60B1504C594920682BF0FBFB28F07F
S315080142C099FD28F098FD5B4920682BF0F3FB5848C7
S315080142D028F09AFD054618B3474C484920682BF043
S315080142E0E9FB474920682BF0E5FB28F083FD28F018
S315080142F082FD444B444A009344498E2320682BF09F
S31508014300D9FB43492B46434A20682BF0D3FB284661
S3150801431001F08AFB404920682BF0CCFB00BEFDE783
S31508014320454C0221207818F077FC054618B3324C23
S31508014330324920682BF0BEFB314920682BF0BAFBC5
S3150801434028F058FD28F057FD2E4B2F4A00932F4988
S31508014350912320682BF0AEFB2D492B462D4A206868
S315080143602BF0A8FB284601F05FFB2B4920682BF0B0
S31508014370A1FB00BEFDE70221207818F061FC054685
S3150801438018B31D4C1D4920682BF094FB1C49206865
S315080143902BF090FB28F02EFD28F02DFD194B1A4A1B
S315080143A000931A49942320682BF084FB18492B465D
S315080143B0184A20682BF07EFB284601F035FB164982
S315080143C020682BF077FB00BEFDE7032001F0E6FA33
S315080143D000283FF46EAD084C104920682BF06AFBA3
S315080143E028F008FD28F007FD0D4920681AB0BDE838
S315080143F070402BF05FBB00BFC47B0020494705080E
S315080144003BF204085BF3040840F204086BF2040863
S315080144107AF2040877F204088FF20408B9F104085D
S31508014420D5F20408EAF20408FBA50020713D01084B
S31508014430B0500020FDF20408B2AD002037B515488A
S3150801444028F0E2FC054618B3134C144920682BF0F2
S3150801445031FB134920682BF02DFB28F0CBFC28F003
S31508014460CAFC104B104A00931049BF2320682BF051
S3150801447021FB0F492B460F4A20682BF01BFB2846C8
S3150801448001F0D2FA0C4920682BF014FB00BEFDE7B7
S3150801449003B030BDB0500020C47B00204947050851
S315080144A03BF2040840F3040840F204086BF20408DE
S315080144B07AF2040877F204088FF2040830B58BB053
S315080144C00DF11F0108A818F0E1FB054618B3274CA2
S315080144D0274920682BF0EEFA264920682BF0EAFADC
S315080144E028F088FC28F087FC234B244A00932449AA
S315080144F0F12320682BF0DEFA22492B46224A20684E
S315080145002BF0D8FA284601F08FFA204920682BF0BB
S31508014510D1FA00BEFDE7032001F040FA20B3134C9F
S315080145201B4920682BF0C6FA28F064FC28F063FCC6
S315080145309DF820309DF81F0004939DF821301549F8
S3150801454003939DF82230144A02939DF823300028DC
S3150801455018BF0A4601939DF8243010490093206834
S315080145609DF825302BF0A6FA0BB030BDC47B002090
S31508014570494705083BF204083AF3040840F20408DF
S315080145806BF204087AF2040877F204088FF2040839
S31508014590B9F10408F8F1040806F20408A0F20408BF
S315080145A030B5002218210A2085B03AF01DFC994C35
S315080145B02060B0B9012001F0F1F960B1964C974934
S315080145C020682BF077FA28F015FC28F014FC94499A
S315080145D020682BF06FFA002005B0BDE8304038F0AE
S315080145E013BE032001F0DAF960B18B4D8D492868B5
S315080145F02BF060FA28F0FEFB28F0FDFB8A492868B3
S315080146002BF058FA00F03EFB032001F0C7F960B120
S31508014610814D844928682BF04DFA28F0EBFB28F0E8
S31508014620EAFB824928682BF045FA814B4FF48072E0
S315080146300293804B80490193042380480093002309
S315080146403AF0C8FC002840F09280012001F0A6F952
S3150801465060B1714D714928682BF02CFA28F0CAFB14
S3150801466028F0C9FB764928682BF024FA0325754BEF
S315080146704FF4C0720293744B744901937448002332
S3150801468000953AF0A7FC002840F08280012001F04D
S3150801469085F960B1604D614928682BF00BFA28F05D
S315080146A0A9FB28F0A8FB6B4928682BF003FA6A4B8B
S315080146B04FF400720293694B6949019302230093EF
S315080146C0236868483AF086FC002871D1012001F078
S315080146D065F960B1504C514920682BF0EBF928F087
S315080146E089FB28F088FB604920682BF0E3F901244F
S315080146F05E4B4FF4807202935D4B5E4901935E48AF
S31508014700002300943AF066FC002861D1204601F0A6
S3150801471045F960B1404C414920682BF0CBF928F0A6
S3150801472069FB28F068FB554920682BF0C3F9544BFF
S315080147304FF400720293534B534901930223534892
S31508014740009300233AF046FC002851D1012001F0DC
S3150801475025F900283FF43FAF2F4C304920682BF04C
S31508014760A9F928F047FB28F046FB494930E7032019
S3150801477001F014F900283FF479AF274D2949286833
S315080147802BF098F928F036FB28F035FB41496AE702
S31508014790284601F003F9002889D01F4D21492868C8
S315080147A02BF088F928F026FB28F025FB3A497BE708
S315080147B0032001F0F3F8002899D0174C194920680D
S315080147C02BF078F928F016FB28F015FB33498BE70F
S315080147D0032001F0E3F80028A9D00F4C11492068FD
S315080147E02BF068F928F006FB28F005FB2C499BE716
S315080147F0032001F0D3F800283FF4EDAE064C094931
S3150801480020682BF057F928F0F5FA28F0F4FA25492B
S31508014810DEE600BFC4500020C47B00206AF304080A
S315080148206FF30408B9F1040893F30408BBF3040809
S31508014830486C0020A86C0020DCF30408494D0108E7
S31508014840E7F30408E86500204866002007F4040831
S31508014850094E010815F40408885D0020E85D00206A
S315080148603BF40408D14E010852F4040828590020E3
S31508014870885900208AF40408854F01089CF4040825
S31508014880C850002028510020CAF40408DD4F010849
S31508014890DEF40408F7F3040828F404086EF404089F
S315080148A0B3F40408F7F404081FB5184BC822029399
S315080148B0174B184901930023174800933AF08AFBCE
S315080148C098B9012001F06AF8F0B1144C144920682E
S315080148D02BF0F0F828F08EFA28F08DFA11492068A5
S315080148E004B0BDE810402BF0E5B8032001F056F8F6
S315080148F050B10A4C0C4920682BF0DCF828F07AFAFA
S3150801490028F079FA0949EAE704B010BDA870002031
S315080149100871002010F50408A1450108C47B002090
S315080149206AF3040819F50408B9F1040839F5040805
S3150801493010B514222DED028B00210446B0EE408AF3
S3150801494036F071FB0023A382074B084AE3616362D1
S315080149504FF07E53A362E362054B84ED068ABDECF4
S31508014960028B2262636310BD00002041CDCCCC3D91
S315080149700AD7233C012904BFDFED547AC0EEA70A02
S31508014980DFED537A037D70B500EB830282ED000AF1
S315080149900522F4EE670A0133B3FBF2F2F1EE10FADF
S315080149A002EB8202A3EB0203427D48BFF0EE670ADF
S315080149B0042A037502D80132427570BD9FED457A06
S315080149C004460021F0EE476AF7EE007AF0EE005A47
S315080149D05E1E251D8E4294ED006A2C4607D136EEE1
S315080149E0066A37EE257A76EE866A1946F1E70131C7
S315080149F0CDB2AA4276EE866A37EE277AE9D870EE04
S31508014A00E70A86EE875AB0EEE06AB1EE047AF0EE6E
S31508014A10676A46EE076AB2EE047A90ED0D6A66EEAB
S31508014A20876AB0EE677A00EE867A9FED2B6AB4EE56
S31508014A30C67AF1EE10FAC0ED096A2ED49FED276AFF
S31508014A40B4EE467AF1EE10FA36FE077A90ED0A6A66
S31508014A50D0ED074AD0ED085A66EE244A44EE865A46
S31508014A6065EE874A90ED060A44EE876A26EE000A45
S31508014A70B0EE666AC4EE866AF4EEE76AF1EE10FAFB
S31508014A8080ED0B7A00EE475A0ADCF5EEC06AF1EEC4
S31508014A9010FA07D5DFED0F6A04E0B0EE467AD5E7DE
S31508014AA0F7EE006A06EE850AB5EEC00A46EEC77A43
S31508014AB0F1EE10FA67EEA57A48BF9FED060AC0ED3A
S31508014AC00C6AC0ED077A80ED060A76E7C3F51C4144
S31508014AD00AD7233C00000000CDCC4C3F9A99993F58
S31508014AE0064B074A1B680021B3FBF2F34343054A09
S31508014AF05162516A9942FCD3704700BF04AB00204A
S31508014B0040420F0000800450F8B565241C4DD5F8C5
S31508014B10D43013F480732DD172B618251C464FF480
S31508014B200077184E0120C6F8D070FFF7D9FF164B4B
S31508014B308440C3F8D070FFF7D3FF114B013DD3F87A
S31508014B40D430DA0548BF044315F0FF05EAD14FF41E
S31508014B5000750120C6F8D050FFF7C2FF0A4BC3F80B
S31508014B60D050FFF7BDFF62B6230248BF44F07F4429
S31508014B702046F8BD013CFBD0012028F080F8C6E7A5
S31508014B8000C0035000D0035000E003500228F8B5D6
S31508014B90044603DCBDE8F840FFF7B6BF114D1028FF
S31508014BA0A8BF10242F460026FFF7AEFF013647F8A7
S31508014BB0040B012028F063F8B442F5D104222146FA
S31508014BC0094B084836F05CF801220023A01E013C77
S31508014BD055F8041F0132A2420B44F9DB93FBF0F0AE
S31508014BE0F8BD00BF2874002091CC030838B54FF4EE
S31508014BF00075094C642004F58053C3F8D05004F5B8
S31508014C000054FFF76DFFC4F8D0504FF4C870BDE8E3
S31508014C10384028F034B800BF00C003501FB5002340
S31508014C2001220821032006F0DDFD002304220921C3
S31508014C30032006F0D7FD4FF400720C4B0121C3F88F
S31508014C40D020242005F05EFB0F2200210DF1010082
S31508014C5036F0E9F90123694605488DF8003029F04F
S31508014C6007FCFFF7C3FF05B05DF804FB00E003503E
S31508014C7000800450431C1CBF014B1870704700BFCD
S31508014C80B3AD002008B539F074FC044B1860044B29
S31508014C9093F90000BDE8084028F007B88C74002095
S31508014CA0FCA50020214A10B5116881421CD128F0C3
S31508014CB064FD012838D1032000F070FE60B11C4C58
S31508014CC01C4920682AF0F6FE28F094F828F093F893
S31508014CD0194920682AF0EEFE01220220174B1A70A4
S31508014CE0BDE8104027F0E1BF526890421CD128F078
S31508014CF044FD012818D1032000F050FE60B10C4C88
S31508014D000C4920682AF0D6FE28F074F828F073F8C2
S31508014D100B4920682AF0CEFE0A4B93F90000B0FA37
S31508014D2080F040091870DBE710BD00BFFCAA00201F
S31508014D30C47B0020B9F104085DF50408FDA500202F
S31508014D407EF50408FCA5002070B52DED028BFFF752
S31508014D5065FF4FF4FA6038F05FFC1420FFF716FF81
S31508014D6004467D2038F058FC032000F017FE68B190
S31508014D701D4D1E4928682AF09DFE28F03BF828F0AB
S31508014D803AF822461A4928682AF094FE9FED198AAC
S31508014D90194D1A4E2B788BB1FFF728FF00234FF4D4
S31508014DA0FA602B7038F038FC1420FFF7EFFE144B2D
S31508014DB0044693F9000027F078FFEBE7FFF7A4FE16
S31508014DC0001B07EE900AF8EEE77A87EE887ABDEEC1
S31508014DD0C77A0C4B0121186886ED007A39F04BFC2D
S31508014DE00C2038F019FCD5E7C47B0020B9F104087A
S31508014DF09FF50408A4707541FDA500208474002060
S31508014E00FCA500208C74002070B501213A2005F01C
S31508014E1079FA012304220A21002006F0E3FC012283
S31508014E2000231146104606F0DDFC00F0DBFE28F0F3
S31508014E3008F968BB032000F0B1FD60B11E4C1F499B
S31508014E4020682AF037FE27F0D5FF27F0D4FF1C4942
S31508014E5020682AF02FFE01220021104628F063F966
S31508014E60602028F04BF90F2028F033F9154C164D20
S31508014E7004F11806204628F060F8304600F050FF85
S31508014E800221286839F0F7FB022038F0C5FBF1E763
S31508014E90032000F083FD70B1074C084920682AF009
S31508014EA009FE27F0A7FF27F0A6FF20680749BDE8F6
S31508014EB070402AF0FFBD70BDC47B0020B9F104081B
S31508014EC0B2F50408687400208C740020C9F504083A
S31508014ED0F0B597B005469FED250A08A8FFF728FD06
S31508014EE0234F244E4FF0FF34012303211A46386815
S31508014EF0009439F05CFB00F003000328F4D11E4B43
S31508014F0096ED000A93F900301C4C012B2AD1002199
S31508014F10D4ED020AB8EEC00A08A8FFF72BFD94E8FB
S31508014F200700D6ED007AF8EEE77ACDED037AD4EDEF
S31508014F30067AFCEEE77A124B8DED020A1B788DF89C
S31508014F401C3017EE903A8DF81D3004AB83E8070044
S31508014F5000236422284602A939F0A7FC0C2038F060
S31508014F605BFBBFE79FED010AD9E700BF0000000020
S31508014F708C74002084740020FCA50020687400202D
S31508014F80B3AD002070B5134E134D96F9003096F95E
S31508014F9000409C420AD0012C0ED1286830B138F065
S31508014FA07BF9032802D1286838F0AEF94FF47A70F4
S31508014FB038F032FB2346EAE7002CF7D128680028A7
S31508014FC0F4D038F069F90228F0D8286838F066FC78
S31508014FD0ECE700BFFCA500208874002037B538F03F
S31508014FE0B1FC0C4B0C4C18600C4800F01BF80C4D2E
S31508014FF014230122009302210023206839F0D7FAED
S31508015000830702D5284600F0A9F8022038F004FBE8
S31508015010EEE700BF887400208C740020754C0108E7
S31508015020687400201B4B10B51860FEF7B3FD1A4CC7
S315080150302060FEF7A9FD194B2268186053691968A3
S3150801504004290BD15968012908D19968642905D120
S31508015050DB68032B02D1137F012B11D0032000F04B
S315080150609DFC60B10E4C0F4920682AF023FD27F0FC
S31508015070C1FE27F0C0FE0C4920682AF01BFDFEE799
S315080150804FF496620021094835F0CDFF0022084BFE
S315080150901A6010BD90740020807900207C79002068
S315080150A0C47B0020B9F10408E3F50408CC74002098
S315080150B094740020F0B5002164200C260C4B0D4D8C
S315080150C01F680D4B1B681A69CB1993FBF0F400FB9B
S315080150D0143306FB03531C68013114605C686429A8
S315080150E054609B6802F10C0242F8043CECD1F0BD15
S315080150F0C8740020CC740020807900201FB5124C9A
S3150801510020680DF0F7F80146B8B1032000F046FC17
S3150801511028B99FED0E0ADFED0D0A04B010BD0C4C3F
S315080151200C4920682AF0C6FC27F064FE27F063FEC6
S31508015130094920682AF0BEFCEBE720680CF0D0FE8E
S31508015140036993ED000AE6E77C7900200000000078
S31508015150C47B0020B9F1040810F6040837B50C25FC
S315080151604149424A0B68046805FB03220133632B54
S31508015170C2BF00230B60012314604468D8BF0B60CB
S31508015180546080683A4C9060C8BF237038F036F98D
S315080151902378002B65D0374A1368C31AC72B60D901
S315080151A01060FFF787FFFFF7A9FFF7EE007A77EEA2
S315080151B0C07A3148314B026803EBC201C1ED007A6E
S315080151C081ED010A0521013292FBF1F1DFED2C7A1D
S315080151D001EB8101521A0260B0EE677A0022D3ED23
S315080151E0006A37EE267AD3ED016A0132052A77EE8F
S315080151F0A67A03F10803F2D1B1EE046AC7EE066A8C
S3150801520087EE867AF4EEC76AF1EE10FADFED1D7ABB
S3150801521036FE876AB4EEE76A1B4B1A68002AC4BFD2
S3150801522002F1FF321A60F1EE10FA17D4F4EEC76AEA
S31508015230F1EE10FAD4BF012200221449086882420D
S3150801524002D11868002809DC0A2450B21C600A60D9
S315080152500F4B1B6803B0BDE8304018474FF0FF30CD
S31508015260F6E703B030BD00BFC8740020CC74002037
S31508015270FEA50020947400209C740020A0740020D0
S3150801528000000000CDCC4C3E98740020B4AA002042
S315080152909074002030B503687E4A23F47F4323F0D7
S315080152A00703934289B040F0F380082200211220B7
S315080152B0794B14F0EDFF044618B3784D7849286800
S315080152C02AF0F8FB774928682AF0F4FB27F092FDC3
S315080152D027F091FD744B754A009375495C2328683C
S315080152E02AF0E8FB73492346734A28682AF0E2FB49
S315080152F0204600F099FB714928682AF0DBFB00BEBD
S31508015300FDE70146032214206D4B14F0C1FF044644
S3150801531018B3624D624928682AF0CCFB61492868AE
S315080153202AF0C8FB27F066FD27F065FD5E4B5F4A4C
S3150801533000935F496A2328682AF0BCFB5D49234626
S315080153405D4A28682AF0B6FB204600F06DFB5B49EA
S3150801535028682AF0AFFB00BEFDE7014605221620A4
S31508015360584B14F095FF054618B34C4C4C49206828
S315080153702AF0A0FB4B4920682AF09CFB27F03AFD4E
S3150801538027F039FD484B494A009349497823206853
S315080153902AF090FB47492B46474A20682AF08AFBA0
S315080153A0284600F041FB454920682AF083FB00BEE8
S315080153B0FDE70DF10F0104A817F068FC044618B3C0
S315080153C0364D374928682AF075FB364928682AF088
S315080153D071FB27F00FFD27F00EFD334B334A00937F
S315080153E03349832328682AF065FB32492346324A22
S315080153F028682AF05FFB204600F016FB2F4928682B
S315080154002AF058FB00BEFDE7BDF8143001465BBA29
S31508015410ADF818309DF8133008228DF81A30FF239D
S315080154208DF81B30FE238DF81C309DF8123018209C
S315080154308DF81D30BDF810305BBAADF81E3006ABDD
S3150801544014F026FF054618B3144C154920682AF0AE
S3150801545031FB144920682AF02DFB27F0CBFC27F0F5
S31508015460CAFC114B114A00931149932320682AF06B
S3150801547021FB10492B46104A20682AF01BFB2846B7
S3150801548000F0D2FA0D4920682AF014FB00BEFDE7A8
S3150801549009B030BDA000010029F60408C47B00202C
S315080154A0494705083BF2040864F6040832F604087D
S315080154B06BF204087AF2040877F204088FF20408FA
S315080154C05AF604085EF60408114B00B51868114B24
S315080154D0114A1860114B8BB01360114A00210092D2
S315080154E0104A1268CDE901230F4B4FF47A720393E0
S315080154F00E4B04930E4B05931923CDE9062332234C
S31508015500CDE90813694608F0A5FA0BB05DF804FB66
S31508015510C4AA00202C8A0020288A0020B8AA0020C4
S315080155200DFA0408407A0020DC790020E079002091
S31508015530E047002008B504482AF06DFABDE808409E
S31508015540024802F09FBD00BF90340508C8AA002092
S31508015550064B1B681A7A022A04D812B11B68044A38
S3150801556013607047032AF9D0704700BFDCAA0020F0
S31508015570407A002030B5184D8FB006AC0FCD0FC458
S3150801558095E80F0084E80F000E2200210DF10A00AC
S3150801559035F049FD4FF47022104B6946CDE90023D9
S315080155A014238DF8083015238DF809300C4B06AAFB
S315080155B003932023049301230A488DF815300A4BD7
S315080155C009F0E2FA044600214FF4E13027F072FCB3
S315080155D020460FB030BD00BF28FA04083C00015B25
S315080155E0FFA50020807B0020447A002029B9074BBB
S315080155F0186803684BB109F097BD022905D8034B12
S31508015600186803680BB12AF010BD7047F0AA00208C
S3150801561008B5044904480AF041F9BDE80840FFF70E
S31508015620A9BF00BFF4AA0020A87B002001482AF0E0
S3150801563064BA00BF807B0020014828F099B800BFF2
S3150801564048FA040830B50368544A23F47F4323F023
S3150801565007039342044685B065D002F1017293426D
S3150801566067D04F4A934262D10122022500212220A6
S315080156700DF10D038DF80D50ADF80E2014F008FE4E
S31508015680044618B3474D484928682AF013FA47498A
S3150801569028682AF00FFA27F0ADFB27F0ACFB444B3C
S315080156A0444A009344499E2328682AF003FA434949
S315080156B02346434A28682AF0FDF9204600F0B4F942
S315080156C0404928682AF0F6F900BEFDE72A46014650
S315080156D00DF10E03272014F0DBFD054638B3314CD6
S315080156E0314920682AF0E6F9304920682AF0E2F9BA
S315080156F027F080FB27F07FFB2D4B2E4A00932E497E
S31508015700A42320682AF0D6F92C492B462C4A20686E
S315080157102AF0D0F9284600F087F92A4920682AF0A4
S31508015720C9F900BEFDE781798088FEF787FE05B0D5
S3150801573030BDB0F805301F2BF9D1C379012B05D13E
S3150801574001890079C9B227F04CFBF0E7022B03D196
S31508015750007927F047FBEAE7124D134928682AF032
S31508015760A9F9124928682AF0A5F927F043FB27F079
S3150801577042FB154B0F4A00930F49852328682AF0E7
S3150801578099F9124A124928682AF094F9E2791149D5
S3150801579028682AF08FF900BEFDE700BFA0000601C0
S315080157A0A0000100C47B0020494705083BF2040814
S315080157B0F71D0508181D05086BF204087AF2040896
S315080157C077F204088FF204080F1E05088C1D0508D8
S315080157D0921D0508AA1D0508044B834205D1044BF1
S315080157E01B7813B1C8B217F03FBA7047B07B0020D7
S315080157F01FA6002030B5002503685A4A23F47F43C3
S3150801580023F0070385B0934204460295ADF80C5080
S3150801581000F0818002F5802293420ED0A2F18272B5
S31508015820934240F09C80504B1B78002B00F09780E8
S3150801583005B0BDE830402AF0DBBCB0F805302C2BAA
S3150801584040F08D80FF2304A91A4611E9030027F0C9
S31508015850CAFA012814BF41F2FC15434B05F0FC02B4
S3150801586008BF18702C21207914F052FD054618B38B
S315080158703E4C3F4920682AF01DF93E4920682AF026
S3150801588019F927F0B7FA27F0B6FA3B4B3B4A0093CA
S315080158903B49592320682AF00DF93A492B463A4AD9
S315080158A020682AF007F9284600F0BEF8374920682B
S315080158B02AF000F900BEFDE7354900902379354AFB
S315080158C00968354800F0D0F80546002847D0274C26
S315080158D0274920682AF0EEF8264920682AF0EAF8CE
S315080158E027F088FA27F087FA234B244A009324499C
S315080158F0622320682AF0DEF822492B46224A2068CC
S315080159002AF0D8F8284600F08FF8204920682AF0AE
S31508015910D1F800BEFDE7B0F80530B7EE047A07EE18
S31508015920903AF8EE677AB0F8073067EE877A01336E
S3150801593007EE103AB8EEC77A67EE877AB1EE047ABF
S3150801594067EE877AFAFE677AFCEEE77A17EE903AFF
S31508015950B3F57A7F38BF4FF47A730D4A136005B0F1
S3150801596030BD00BFA00006021FA60020C47B002090
S31508015970494705083BF20408941E0508211E050837
S315080159806BF204087AF2040877F204088FF2040825
S3150801599000AB0020D9570108B07B00200B4B02460B
S315080159A01B7883B10A4B1B78834234BF0020012040
S315080159B0084B1B7833B1084B1B78134113F0010FC1
S315080159C008BF002070470120F2E700BFB6AD0020EE
S315080159D0B5AD002020A60020B4AD0020012208B5EF
S315080159E0074B1A700022074B1A700422064B1A70CD
S315080159F01F22064B1A7009F01DF8054B186008BDE1
S31508015A00B6AD002020A60020B5AD0020B4AD00201B
S31508015A10C47B0020024B034918682AF04BB800BF23
S31508015A20C47B0020B41E050870B50C4C0C4906460B
S31508015A3020682AF03FF808F0FDFF0546206808F0BF
S31508015A40CFFF3046FFF7E6FF284608F0C9FF206872
S31508015A500449BDE870402AF02DB800BFC47B002078
S31508015A60B61E0508B81E05082DE9F74305469046F2
S31508015A701F469DF8289049B9B9F1000F38D1002879
S31508015A8014BF2120222003B0BDE8F08370B34FF480
S31508015A907A7303FB01F404F2E7349C42B4FBF3F690
S31508015AA026D327F0B1F9012801D10120EBE7134BE1
S31508015AB0314600934A462B46114839F0A9FA06465B
S31508015AC0C0B1C5E90008AF6085F8109037F096FCBB
S31508015AD000240246234601213046009438F0F0F8A6
S31508015AE0012809D0284627F08FF9DEE72220CAE7E0
S31508015AF02120C8E71920C6E72046C4E7F9CD0308DF
S31508015B00BB1E05087FB5214A08281388ADF8003061
S31508015B10ADF80430ADF80830ADF80C304FF4206319
S31508015B20ADF810305388ADF814300ADC00280CDDC6
S31508015B300138072809D8DFE800F00A130818080809
S31508015B40081C202819D040281BD00E2005E0012268
S31508015B500421684602F00AF9002007B05DF804FB43
S31508015B60042101220DEB0100F4E70122042102A818
S31508015B70F0E70122042103A8ECE70122042104A885
S31508015B80E8E70122042105A8E4E700BFC51E0508C8
S31508015B9008B5064829F03FFF27F0BDF80120FFF7B1
S31508015BA0B1FFBDE8084000F0F5B800BF903405081C
S31508015BB0014829F030BF00BF9034050807B5082011
S31508015BC027F03EFE02238DF80030054B6846019307
S31508015BD027F034F9082003B05DF804EB27F03BBE43
S31508015BE0006A181070B52A4E92B0354605AC0FCD2D
S31508015BF006F114050FC40FCD0AAC0FC495E80F00C2
S31508015C0084E80F00234B244807930AAB09934FF402
S31508015C108073ADF82C3029F0FEFE204829F0FBFEF2
S31508015C200421B38E0DEB01000022ADF8043002F019
S31508015C309DF8F38E0022042102A8ADF8083002F07F
S31508015C4095F8338F0022042103A8ADF80C3002F031
S31508015C508DF802230122042104A8ADF8103002F0C0
S31508015C6085F80F4805A905F0C3FC0E4B0E4A00201E
S31508015C70C3F8CC244FF00212C3F8C424A2F580322B
S31508015C80C3F8C8241C22C3F8B42412B070BD00BFDF
S31508015C90CC1E0508A05A320094340508903405082C
S31508015CA000C0085000C003500200030038B504467E
S31508015CB0084D012027F00DF97621284628F087FBA3
S31508015CC02146284628F083FB002027F002F9002008
S31508015CD038BD00BF00C0085070B50546C0F3C710EF
S31508015CE00E46144665F07F05FFF7E0FF012027F011
S31508015CF0F0F8E9B2094828F06AFB084D2644B4428F
S31508015D0004D1002027F0E5F8002070BD00212846BF
S31508015D1028F05DFB04F8010BF1E700BF00C008504D
S31508015D2013B50446022101AA1D20FFF7D5FFBDF8C8
S31508015D300430DFED096ADBBA07EE903AF8EEE77A46
S31508015D4087EEA67AF3EE097A002077EE277AC4ED74
S31508015D50007A02B010BD00BFE17A044370B504466B
S31508015D600D460B4EC0F3C710FFF7A0FF012027F021
S31508015D70B0F804F07F01304628F029FB2946304661
S31508015D8028F025FB002027F0A4F8002070BD00BFED
S31508015D9000C008502DE9F047544E96B0354609AC77
S31508015DA00FCD0FC42B6806F1140523600EAC0FCD79
S31508015DB00FC495E80F00DFF84C8184E80F004C48C2
S31508015DC029F029FE404629F026FE4FF48073494FF3
S31508015DD0ADF83C30484B38460B9309A90EAB0D93E9
S31508015DE005F006FC04214FF4E065B6F834A00DEB86
S31508015DF001000122ADF804A001F0B8FFB6F836900B
S31508015E000022012102A8ADF8089001F0AFFF368FF4
S31508015E100122042103A8ADF80C6001F0A7FF0122B5
S31508015E20042104A8354CADF8105001F09FFF344BFE
S31508015E304FF44870C4F8C8344FF00213C4F8C43498
S31508015E4003F58033C4F8CC341C23C4F8B43409F000
S31508015E5091FF08A8ADF8205001F0EAFF142009F0D7
S31508015E6089FF08A8ADF8205001F0B6FF232009F0F4
S31508015E7081FF08A8ADF8205001F0DAFFB9213846AC
S31508015E8028F0A5FA08A8ADF8205001F0A5FF0022D0
S31508015E9005A81146ADF814A001F068FF002206A86E
S31508015EA01146ADF8189001F061FF0122002107A8FB
S31508015EB0ADF81C6001F05AFF0122002108A8ADF8CF
S31508015EC0205001F053FF384605F080F9002340467B
S31508015ED0C4F8B434C4F8C834C4F8C434C4F8CC34E7
S31508015EE029F09CFD16B0BDE8F08700BF081F05081C
S31508015EF09034050800C00850E070720000C00350D5
S31508015F0002000100943405080348044A0449121A98
S31508015F10921027F03FB900BFB42101087423010884
S31508015F20E0A8002008B500F02FF8FFF7EDFF124BA7
S31508015F3012498B4212D30020114B12498B4218D3B6
S31508015F40FDF77AF8186850F82240586840F8224058
S31508015F50013298688242F5D30C33EAE70022F8E762
S31508015F601C6844F8220001325C68A242F8D308335F
S31508015F70E4E70022F8E700BF609D05086C9D050867
S31508015F806C9D05086C9D05084FF48041144B154A14
S31508015F9070B59A60D3F88820134D42F47002C3F89D
S31508015FA08820124A05F5005491664FF0FF322266A1
S31508015FB06FF4003262660D22A2660222C3F8D0206F
S31508015FC0BFF34F8FBFF36F8F4FF44036002008F0B1
S31508015FD0F9FC0020E66008F0D9FC2E6170BD00BF0F
S31508015FE000ED00E000200108008000440090005008
S31508015FF0014B1860704700BF08AB0020054B1860BD
S31508016000054B1B6F03F00703032B01D135F0F0B9DC
S31508016010704700BF10AB0020008000504FF00063AE
S315080160209B6A03F17842B2F5903F03D21968064A92
S31508016030914203D0002303708360704701220270E6
S315080160409A689B694260F7E707B0CD5E4FF0006337
S315080160509B6A10B503F17842B2F5903F11D21968DF
S31508016060094A91420DD1094C227812F0FD0F01D04F
S31508016070002010BDDB6998470028FAD10123237057
S31508016080F6E74FF48170F4E707B0CD5E21A600204C
S31508016090024B034A1A6029F0CCBC00BF000000205D
S315080160A002020FF0BFF34F8F0549064BCA6802F487
S315080160B0E0621343CB60BFF34F8F00BFFDE700BF1C
S315080160C000ED00E00400FA0570B5D0B1C9B10E4E75
S315080160D0431E013913F8014F2046325D02F00302CF
S315080160E0012A11F8012F08BF04F12000B55C05F05B
S315080160F00305012D08BF2032801A01D1002CE9D1F0
S3150801610070BD0120FCE700BF399C050840B1054A6E
S315080161101378012B04D803700133002013707047DC
S315080161200120704722A600204FF0BA4201230548F4
S3150801613002F580514B60086203490968D160034A38
S315080161401370704701000C1F14AB002023A6002012
S315080161504FF0BA41074BCA681A600123064A5360D1
S315080161604B6813F00203FBD14FF0FF311162034A6A
S315080161701370704714AB00200020005D23A6002091
S315080161804FF0BA42D369126A10B5134013F0F850AA
S315080161901EBF0120114A1070DC070ED54FF0BA4117
S315080161A00A695007FCD50E4A4C69106820441060EC
S315080161B088695168014401205160590341BF084962
S315080161C00A6802F180720A601A0341BF04494A68E3
S315080161D002F180724A60034AD36110BD24A60020E9
S315080161E0C87B00200020005D0023044A044913707F
S315080161F0044A05481360054A00F0E2B824A60020BF
S3150801620051610108D47B00202961010881610108D7
S3150801621008B500F039F94FF0BA430A4AD969136843
S3150801622041F201500B4313604FF47D32064BDA619C
S31508016230064B1A78002A4FF0000208BF10461A705A
S3150801624008BD00BFD47B00200020005D24A60020E5
S3150801625009230E4A70B5C0F8103113680546013393
S315080162600E461360FFF7D4FF044660B900F0FAF84A
S315080162704FF48A722846064900F0D8F81EB1BDE8DF
S315080162807040FFF7C5BF204670BD00BFD07B002018
S315080162906400005D9446F0B5BDF81870174E099C68
S315080162A0013F06EA0444BDF81C50C7F30907274312
S315080162B00A9C013D06EA0444C5F309052543BDF8D0
S315080162C01440089A013C06EA0246C4F30904344319
S315080162D01E0306F4405634435B0700EB011301F134
S315080162E00201C3E90A7548BF44F480440B0100EB77
S315080162F001114C6040F803C0F0BD00BF0000FF0F5C
S31508016300F8B500210C250446D0F8743200F5097653
S31508016310DFF854C0D0F868028B4217DA05FB03038D
S3150801632093F8BB20002142F0800283F8BB20FFF7D7
S315080163308FFF4FF48A72D4F86C3283F00103C4F8E4
S315080163406C3202FB0343C4F86832F8BD05FB01074A
S31508016350D7F8B82056F804EF02EA0C0242EA0E0210
S31508016360C7F8B8200131D7E70000FFFF8B1E012BC4
S3150801637003D8044B1B6823B11847012901D8024BDE
S31508016380F8E77047EC7B0020F07B002010B537F06A
S3150801639042FE04460021012035F032FC204637F042
S315080163A035FE0022014B1A7010BD00BF25A600203C
S315080163B0024B03C883E8030000207047E07B0020F6
S315080163C038B5114C2378E3B9104B114D1960114BAF
S315080163D028601A604FF080420F4B10489A66FFF703
S315080163E0E7FF1C2008F0D2FA2B6803B198470C483E
S315080163F00C4909F053FA0123002023700A4B18703F
S3150801640038BD1220FCE700BF26A60020EC7B002041
S31508016410F07B0020E87B002000900050E07B002004
S31508016420D87B0020941F050825A600200B4B10B524
S315080164301B7873B10A4B1B786BB1002392089A42F9
S3150801644001D1002010BD50F8234041F82340013303
S31508016450F5E71120F6E70E20F4E700BF26A600208F
S3150801646025A6002010B537F0D6FD012104460846B9
S3150801647035F0C6FB204637F0C9FD0122014B1A70DB
S3150801648010BD00BF25A60020064B1B7843B14FF06F
S31508016490BA4213695B07FCD5034A1378002BFCD172
S315080164A0704700BF26A6002025A6002008B5054B83
S315080164B01B682BB1984718B1BDE80840FFF766BFBE
S315080164C008BD00BFE87B002000487047F47B002028
S315080164D000487047F47B0020F0B5044601258C423C
S315080164E005D88D4203D8002015601C60F0BD002038
S315080164F0DFF828C01CF8017BB4FBF7F607FB164E3C
S31508016500BEF1000F05D1B44207FB05F504D03446A8
S31508016510E5E701300B28EDD10120E5E79C1F0508C9
S315080165202DE9F04F174687B004460D469846FFF702
S31508016530CBFF17F1800F064602D1B8F17F0F04D0C1
S31508016540A02D12D82544A54203D1002007B0BDE8E5
S31508016550F08F94F900309F4202DD27700134F2E78B
S315080165609845B8BF84F80080F8E74FF0000940F273
S315080165700A2A3B463A460021304626F06AFE434639
S3150801658042460121304626F064FE4B464A464946B4
S315080165903046CDE90199CDF800A026F0C4FE40F2B7
S315080165A00B232F4A0121CDE90032304640F2D5129C
S315080165B02C4BCDF8089026F0B6FE01212A4B40F265
S315080165C0D512CDE9013130460221284BCDF800A07C
S315080165D026F0A9FEB5F5006F2B4628BF4FF40063D8
S315080165E023F0030B4FEA5B0A1FFA8AFA22460021B7
S315080165F030460593CDF800A0052326F072FE052343
S31508016600224601213046CDF800A026F06AFE022373
S31508016610059A002130460093CDE901990123C2F379
S315080166208F0226F092FE01213046FFF711FE00285F
S315080166308CD1A5EB0B059F2D5C44CBD8002D84D0BE
S31508016640254414F9013B9F4204DD04F8017CA54267
S31508016650F7D17AE79845B8BF04F8018CF7E700BF88
S315080166600000A021000102200000B0210001033032
S315080166702DE9F04F036895B00593436A066D0693B5
S31508016680836A42680793C36A856B0893036ED0F8D9
S3150801669014B00993C36DD0F83C900A938369DFED72
S315080166A0576A0B9383680BFB01FA0C93036B0D93E3
S315080166B0436C00694B43F41A24EAE474F71A9B1BEA
S315080166C0234453430744AF42A8BF2F46019302FB15
S315080166D005F3002502FB00F1119302FB04F30E9763
S315080166E013911293059B9D4203DB002015B0BDE86B
S315080166F0F08F00200B9B129E53440493584574DB7C
S315080167000199139B01351944DA440191EAE74FF0DF
S3150801671000080C9B734402930D9B634403939045B5
S3150801672047DB0137964494440E9B9F42EFDBB9F150
S31508016730000F0BD039F81030F2EE677A07EE103AEF
S31508016740B2EE477A77EE277AF3EE677A089BF2EE8E
S31508016750677A33F81030013007EE103AB2EE477A0D
S3150801676067EE277AF3EE677AF2EE677AFDEEE77A55
S3150801677017EE901AADF80830099B1944069B994201
S31508016780B8BF1946079B9942A8BF194607EE901A42
S31508016790F8EEE77AF3EE677AF2EE677AFDEEE77AD4
S315080167A017EE901A049B03F8011B0493119B1E44D0
S315080167B0A4E7029BF2EE677A13F9011B08F10108B7
S315080167C00293039B0F9113F9011B109103930F99E0
S315080167D00A9B1944109B594307EE101AB8EEC77A5B
S315080167E047EE267AF3EE677A99E740F20003B44654
S315080167F0274607EE903ADDF804E095E700000038F1
S315080168002DE9F04F2DED048B436CD3B02993836D9D
S3150801681082463793436D90ED178A3893036DD0F806
S3150801682040901D93C36C90F8485014938368C66BC7
S315080168303993036B32913A93C36A3B9340F200034F
S31508016840ADF842318369459300235193FFF740FE22
S3150801685004462DB91D9B149A13431CBF212351933A
S31508016860379B012B02D1389B012B01D02123519350
S31508016870329B4BB1DDE9393213433B9A3343134318
S31508016880DA0744BF21235193519D002D40F0DA8345
S31508016890DAF8043020460F93DAF81430DAED188A5C
S315080168A00993DAF80C30BAEEE88A2A93DAF8343022
S315080168B0B3EE488A1E93DAF81C302B93DAF80030C7
S315080168C03C93DAF810301593DAF838301693DAF87B
S315080168D02030179326F021FE1E9A2A9B002EA3EB41
S315080168E00203149A134493FBF9F30D93DDE9153268
S315080168F0A3EB02031D9A1344299A93FBF2F3179A01
S315080169004893099B02FB03F30F9A1393169B02FB09
S3150801691003F32393239A1E9B02FB03F30F9A3193E6
S31508016920159B02FB03F32193299B02FB03F349936E
S31508016930219B159A03FB09F34A93BDF824301C934E
S3150801694008BF012343930DF5A17318BF3346469338
S315080169502A9B53430F9A53434B93179A2B9B0E9596
S315080169605343099A5343409340F2002309EE103AE0
S315080169700E9B179A934219DB329BABB1FFF748FC82
S315080169805190002840F059833C9B2B99099859430B
S31508016990179B9AF9242059439AF928304143DAF882
S315080169A01800FFF7BDFD5190519846E30E9B299AB1
S315080169B01D995A431D9B1698D31A8A1A22EAE2721E
S315080169C01892159A1899D21A9042D4BFC1EB0001B0
S315080169D0C1EB0201002B27DB0E98489D169E9642B5
S315080169E0D8BF28462490249A0E98121A01320A9280
S315080169F00F9A4A4318993092379A01FB02330A993A
S31508016A003F93DDE949320129D8BF1346219A2893D4
S31508016A1013434C9300230C930C9B2B9A934206DB4E
S31508016A20249B01330E93A3E70E9A2492DBE70C9B72
S31508016A30149A09FB03F3991AD31A2A9A1E9823EA78
S31508016A40E373521A9042D4BFC3EB0000C3EB0200B2
S31508016A50002908907DDB1E9991427ADCDDE90C124A
S31508016A60521A571C002A79D00A9A012A7CDD8145D7
S31508016A7063D044DD012FA9EB000B65DC01260D9AD5
S31508016A800B92BE423246A8BF3A464792139A1699C6
S31508016A9072432E92721E20922E9AB2F5006F209A98
S31508016AA0B8BF00222D9201324E92189A03FB012299
S31508016AB00F994A43239911434D910A990129D8BF40
S31508016AC0394689B241913A998A1842920C9A14998F
S31508016AD002FB09F2521A389903FB01232E9A2C93C9
S31508016AE0139BB2F5006FB8BF134633930023119376
S31508016AF0119B479A93423ADB0B9B01338BE7089A22
S31508016B00089992FBF9F209FB121B1646BBF1000F15
S31508016B100ED0012F06F10106A9EB0B0B0ADD0A4679
S31508016B205A4406FB09F191421CBF2822519201E001
S31508016B30012F0CDC0D9A0B92A3E7012F14DD4A46AF
S31508016B4001264FF0000BECE74A460126E9E7089AC9
S31508016B50E7E701270C9A0B92012602E03E460D9AB9
S31508016B600B924FF0000B8CE70D9A0B92F4E7119BF1
S31508016B70BB42C4BF28235193119BFB1A93FBF6F220
S31508016B8006FB1233002B18BF0132012A0A9B199200
S31508016B9009D1012B45DD00231093109A089B134454
S31508016BA0199A534307E0012B38DCBBF1000F32D1A8
S31508016BB0089BCDF840B025934E9A199B15995343D6
S31508016BC03D93199B2C9A73432F93109B013B002BE2
S31508016BD03E93CCBF4FF48773002344933F9B01FB3D
S31508016BE002330F9A179953430C9A2293119B134414
S31508016BF00E9A01FB0323099A53431B9300232693F9
S31508016C00269B3C9A934211DB119B013311932C9BD2
S31508016C104B442C936CE728235193C9E7CDF840B030
S31508016C20BBE7089B259300231093C5E72E9BB3F575
S31508016C30006F14DB139BB3F5006F10DB1B9B002B56
S31508016C404FF02803519303DA099B002BC0F2B58153
S31508016C502F9BDDF880801A93139B129314E01B9BDC
S31508016C60DDF8B480002BBCBF28235193099B002B68
S31508016C703D9B1A93339B129301DA28235193129B56
S31508016C80002B01DA28235193DDE9303213434C9A5C
S31508016C9013434D9A1343229A1343DB0700F1948158
S31508016CA0309B03EBD3735B102793289B03EBD373BA
S31508016CB05B103493219B03EBD372319B521003EB88
S31508016CC0D3735B103693239B03EBD3735B10359316
S31508016CD0012320461F934F9226F094FB1F9B012503
S31508016CE0002B14BF0523012351AAD4F86802069282
S31508016CF04F9ABDF89C100492349A02910392BDF8FA
S31508016D00942034910192419A22990092399A0595D3
S31508016D100A4400214F9326F09EFB51ABCDE905535A
S31508016D20359BBDF820200493369B01920393349B2F
S31508016D30294602931C9B429A0093D4F868024F9BFA
S31508016D4026F089FB51AB0193439B469A0093022394
S31508016D50D4F86802194626F0B7FB51AB01931C9B80
S31508016D60032100933B9A0223D4F8680226F0ACFB70
S31508016D7051ABCDE90553099B1B990493129B459A7F
S31508016D8003931C9B0A440293BDF8283004210193FE
S31508016D90BDF868300093D4F868022B4626F05BFBF1
S31508016DA0B0EE490A0021D4F8680226F078FA1F9B4A
S31508016DB0002B00F01481F0EE480AB0EE480A294685
S31508016DC0D4F8680226F075FAB8EEE80A0025B3EE9B
S31508016DD0400A0221D4F8680226F061FA2046099988
S31508016DE051AA26F0DDFA51AB41212046964A019374
S31508016DF000954EF62C4326F011FB20460A9951AA16
S31508016E0026F0CEFA2046199951AA26F0C9FA204643
S31508016E10089951AA26F0C4FA2046279951AA26F0BC
S31508016E20BFFA51AB40F2CD112046CDE90053874A4E
S31508016E30874B26F0F3FA51AB40F2D711854A204623
S31508016E40CDE900532B4626F0E9FA204626F04EFBFB
S31508016E5002222946204626F064FB02220121204609
S31508016E6026F05FFB204626F041FB0A9B012B04DC3A
S31508016E7001222946204626F054FB109B002B04DDEF
S31508016E8002220021204626F04CFB1F9B002B00F016
S31508016E90AE80109B4A21023B129351AB019300230A
S31508016EA0204600936C4A449B26F0B8FA129B51ADD2
S31508016EB0013B1A93129B40F2CD11002B4FF04F6301
S31508016EC020460093654ACCBF4FF48773002301958A
S31508016ED026F0A4FAB8F1000F0FDD2A4641462046EE
S31508016EE026F05EFA00222046CF231146019500922C
S31508016EF026F094FA204626F0F9FA4FF0000851AD2B
S31508016F00434641212046504A0195CDF8008026F096
S31508016F1085FA1A9B012B6DD119462A46204626F079
S31508016F203FFA4346424641462046CDE9008526F0CA
S31508016F3075FA204626F0DAFA02224146204626F05C
S31508016F40F0FA204626F0D2FA02220421204626F03B
S31508016F50E8FA0A9B012B04DD01220021204626F0CE
S31508016F60E0FA204626F0C2FA04222046114626F007
S31508016F70D8FA01222046114626F0D3FA0422022124
S31508016F80204626F0CEFA04220321204626F0C9FA25
S31508016F90204626F0ABFA519800284ED1329B002B99
S31508016FA045D1269B4B9A01332693229B1344229360
S31508016FB0409A1B9B13441B9322E62F9BDDF8808086
S31508016FC01A93139B129358E6289B219A3493319B63
S31508016FD03693239B3593309B2793002379E6B0EEAE
S31508016FE0480A2946D4F8680226F059F9ECE63E9B88
S31508016FF012935BE7A5DD129B2A46991E204626F0C9
S31508017000CFF92A462046012126F0CAF942464146C9
S3150801701043462046CDE9008526F000FA204626F0AB
S3150801702065FA02224146204626F07BFA81E7204688
S31508017030FFF766F951900028B3D053B0BDEC048B25
S31508017040BDE8F08F2846F8E7000004500600016005
S315080170500E7E08000607055000000550050302705C
S315080170602DE9F04F2DED048B04468DB0002800F074
S31508017070FC81D0F82CB0BBF1000F40F0F681036A11
S31508017080DFEDCB8A13F0010F14BF4FF480624FF482
S3150801709000629A42C0F2EB80FFF716FAD4ED057A40
S315080170A0B8EEE78AE36C276A0793B4F8503017F00D
S315080170B0010609EE103AE36B05460593236C28EEA3
S315080170C0288A0693BDF814A0BDF8189040F0B88038
S315080170D007EBD7784FEA6807C8F34F08CDE900A848
S315080170E005233146226826F00CF905230121CDE94D
S315080170F00098A269284626F004F9226B002A00F0B6
S31508017100AE80A38E009302231946284626F0E9F895
S31508017110CDE900A90123A26B0321284626F0F1F83F
S31508017120DFEDA30A0021B0EE600A284626F0CBF867
S31508017130F0EE480AB0EE480A0121284626F0C3F8BF
S31508017140B0EE490A0321284626F0A9F80421284663
S31508017150079A26F094F84FF0000840F22D2342468C
S31508017160414628460093CDE90188434626F0DBF8D7
S31508017170904B40F2D712012128460093CDE90188A8
S315080171808D4B26F0D0F840F2D71202212846CDE9D8
S3150801719001888A4BCDF8008026F0C5F8002E63D108
S315080171A04A2203212846CDE90166854B009626F039
S315080171B0BAF84FF0040800264FF0010B814B5FFA2D
S315080171C088F840F2D71241462846CDE9013B009698
S315080171D07D4B26F0A8F83346524631462846CDE976
S315080171E00166CDF8008026F0B0F842F202034A465D
S315080171F059462846CDE900830296334626F0A5F876
S31508017200022120232846CDE9001302965B46BAB22D
S3150801721026F09BF859462846FFF71AF8002840F049
S31508017220BC80DDE90510414394F9533094F95220A5
S31508017230A06B0DB0BDEC048BBDE8F04FFFF770B93C
S315080172401FFA87F8CDE900A801235946226826F0D6
S3150801725058F80123CDE900981946A2694AE701239E
S315080172605A4A009302234FE74FF00308A3E7FFF7B3
S315080172702BF9D4ED057AB8EEE78AB4F8503005460D
S3150801728028EE288A09EE103AE36BF0EE680A0793AE
S31508017290236CB0EE680A59460593E66C276A26F010
S315080172A012F8F0EE480AB0EE480A0121284626F0FF
S315080172B00AF803212846B0EE490A25F0F0FF07F03F
S315080172C0010832460421284625F0D9FFB8F1000FF6
S315080172D068D1052307EBD770401006934FF48061F8
S315080172E00BAB0AAAFFF7F8F80646002840F0BD805E
S315080172F0304B014640F2D712CDE9010000932846EA
S315080173002D4B26F010F840F2D71201212846CDE977
S3150801731001662A4B009626F006F8B8F1000F44D10B
S3150801732002214A222846CDE90188254BCDF800805D
S3150801733025F0F9FF032100264FF00108214B40F201
S31508017340D7122846CDE9013800961F4B25F0EBFFE9
S31508017350334631462846BDF82820CDE90166CDF8E1
S31508017360008025F0F2FF22234146CDE90083284615
S315080173703346BDF82C20029625F0E7FFB246B34600
S31508017380079B5B456DDC0598079994F95330414392
S3150801739094F95220A06BFFF7C3F80DB0BDEC048B2E
S315080173A0BDE8F08F3846012397E70221C3E700BFFE
S315080173B0000000380E7E0800060001600607055029
S315080173C0000005500000D02305030450A81F050836
S315080173D0A36922684B440893236B3244002B3DD0A2
S315080173E033F81830A16B08EE103A08EB0A03CB18EC
S315080173F00993BDF82C3000210193BDF828302846A1
S315080174000093069B25F07DFFBDF82C3001210193E1
S31508017410BDF828302846089A0093069B25F071FF87
S315080174200123099A00930321284625F05AFFB0EE55
S31508017430480A0521284625F032FF01212846FEF78C
S3150801744007FFB9440028A8D108F10108059B43455F
S31508017450BEDC0BF1010B9A443E4491E740F200036E
S31508017460C0E74FF00009C846F0E7212095E700BFBD
S3150801747058B1031F9FED137A0020DFED136A9FEDC4
S31508017480136A01EB4202914200D17047D3ED017AAA
S31508017490F8EEE77A67EE877AF4EEE67AF1EE10FA15
S315080174A003F104030CDCF4EE467AF1EE10FA48BF58
S315080174B02120F3EE677A17EE90CA21F802CBE2E7AC
S315080174C02120F6E70000003800E07F4700E07FC78B
S315080174D02DE9F04F2DED048B0368C1B03193C368D4
S315080174E090ED098A20930369D0ED088A119383697F
S315080174F0D0F804B02A93C36990F838502193036CE5
